{
  "contractName": "Ownable",
  "abi": [
    {
      "anonymous": false,
      "inputs": [
        {
          "indexed": true,
          "internalType": "address",
          "name": "_newOwner",
          "type": "address"
        },
        {
          "indexed": true,
          "internalType": "address",
          "name": "_owner",
          "type": "address"
        }
      ],
      "name": "OwnershipTransferred",
      "type": "event"
    },
    {
      "constant": true,
      "inputs": [],
      "name": "Owner",
      "outputs": [
        {
          "internalType": "address",
          "name": "",
          "type": "address"
        }
      ],
      "payable": false,
      "stateMutability": "view",
      "type": "function"
    },
    {
      "constant": false,
      "inputs": [
        {
          "internalType": "address",
          "name": "_newOwner",
          "type": "address"
        }
      ],
      "name": "transferOwnership",
      "outputs": [],
      "payable": false,
      "stateMutability": "nonpayable",
      "type": "function"
    }
  ],
  "bytecode": "0x6080604052336000806101000a81548173ffffffffffffffffffffffffffffffffffffffff021916908373ffffffffffffffffffffffffffffffffffffffff16021790555034801561005057600080fd5b50610253806100606000396000f3fe608060405234801561001057600080fd5b50600436106100365760003560e01c8063b4a99a4e1461003b578063f2fde38b14610085575b600080fd5b6100436100c9565b604051808273ffffffffffffffffffffffffffffffffffffffff1673ffffffffffffffffffffffffffffffffffffffff16815260200191505060405180910390f35b6100c76004803603602081101561009b57600080fd5b81019080803573ffffffffffffffffffffffffffffffffffffffff1690602001909291905050506100ee565b005b6000809054906101000a900473ffffffffffffffffffffffffffffffffffffffff1681565b6000809054906101000a900473ffffffffffffffffffffffffffffffffffffffff1673ffffffffffffffffffffffffffffffffffffffff163373ffffffffffffffffffffffffffffffffffffffff161461014757600080fd5b600073ffffffffffffffffffffffffffffffffffffffff168173ffffffffffffffffffffffffffffffffffffffff16141561018157600080fd5b806000806101000a81548173ffffffffffffffffffffffffffffffffffffffff021916908373ffffffffffffffffffffffffffffffffffffffff1602179055503373ffffffffffffffffffffffffffffffffffffffff168173ffffffffffffffffffffffffffffffffffffffff167f8be0079c531659141344cd1fd0a4f28419497f9722a3daafe3b4186f6b6457e060405160405180910390a35056fea265627a7a723158200f3e7c28da2c78c5d86ff2d0188e108721082cdb25f65d237ed4d12b19f6763a64736f6c63430005100032",
  "source": "// SPDX-License-Identifier: GPL-3.0\npragma solidity >=0.4.16 <0.9.0;\n\n\ncontract Ownable{\n    \n    // hot and cold wallet addresses\n    \n    address public Owner = msg.sender;\n    \n    // event for ownership transfer\n    \n    event OwnershipTransferred(address indexed _newOwner, address indexed _owner);\n\n   /**\n   * @dev Reverts if called by any account other than the hotOwner.\n   */\n   \n    modifier onlyOwner() {\n        require(msg.sender == Owner);\n        _;\n    }\n    \n  \n   /**\n   * @dev Assigns new hotowner and coldOwner\n   * @param _newOwner address The address which is  new owner.\n   */\n    \n    function transferOwnership(address _newOwner) public onlyOwner {\n        require(_newOwner != address(0));\n        Owner = _newOwner;\n        emit OwnershipTransferred(_newOwner, msg.sender);\n    }\n\n}",
  "sourcePath": "/Users/Deepanshu.Tyagi/Desktop/simplecoin/contracts/Ownable.sol",
  "compiler": {
    "name": "solc",
    "version": "0.5.16+commit.9c3226ce.Emscripten.clang"
  },
  "schemaVersion": "3.4.3",
  "updatedAt": "2021-08-16T16:48:33.775Z",
  "devdoc": {
    "methods": {
      "transferOwnership(address)": {
        "details": "Assigns new hotowner and coldOwner",
        "params": {
          "_newOwner": "address The address which is  new owner."
        }
      }
    }
  },
  "userdoc": {
    "methods": {}
  }
}